{
  "contractName": "VaxPass",
  "abi": [
    {
      "constant": false,
      "inputs": [
        {
          "internalType": "string",
          "name": "item",
          "type": "string"
        }
      ],
      "name": "addItem",
      "outputs": [],
      "payable": false,
      "stateMutability": "nonpayable",
      "type": "function"
    },
    {
      "constant": true,
      "inputs": [],
      "name": "getItems",
      "outputs": [
        {
          "internalType": "string[]",
          "name": "",
          "type": "string[]"
        }
      ],
      "payable": false,
      "stateMutability": "view",
      "type": "function"
    }
  ],
  "bytecode": "0x608060405234801561001057600080fd5b5061046b806100206000396000f3fe608060405234801561001057600080fd5b50600436106100365760003560e01c806327e9f2941461003b578063410d59cc14610050575b600080fd5b61004e610049366004610279565b61006e565b005b6100586100b4565b604051610065919061036f565b60405180910390f35b600080546001810180835591805282516100af917f290decd9548b62a8d60345a988386fc84ba6bc95484008f6362f93160ef3e5630190602085019061018d565b505050565b60606000805480602002602001604051908101604052809291908181526020016000905b828210156101835760008481526020908190208301805460408051601f600260001961010060018716150201909416939093049283018590048502810185019091528181529283018282801561016f5780601f106101445761010080835404028352916020019161016f565b820191906000526020600020905b81548152906001019060200180831161015257829003601f168201915b5050505050815260200190600101906100d8565b5050505090505b90565b828054600181600116156101000203166002900490600052602060002090601f016020900481019282601f106101ce57805160ff19168380011785556101fb565b828001600101855582156101fb579182015b828111156101fb5782518255916020019190600101906101e0565b5061020792915061020b565b5090565b61018a91905b808211156102075760008155600101610211565b600082601f83011261023657600080fd5b8135610249610244826103a7565b610380565b9150808252602083016020830185838301111561026557600080fd5b6102708382846103e2565b50505092915050565b60006020828403121561028b57600080fd5b813567ffffffffffffffff8111156102a257600080fd5b6102ae84828501610225565b949350505050565b60006102c28383610337565b9392505050565b60006102d4826103d5565b6102de81856103d9565b9350836020820285016102f0856103cf565b8060005b8581101561032a578484038952815161030d85826102b6565b9450610318836103cf565b60209a909a01999250506001016102f4565b5091979650505050505050565b6000610342826103d5565b61034c81856103d9565b935061035c8185602086016103ee565b6103658161041e565b9093019392505050565b602080825281016102c281846102c9565b60405181810167ffffffffffffffff8111828210171561039f57600080fd5b604052919050565b600067ffffffffffffffff8211156103be57600080fd5b506020601f91909101601f19160190565b60200190565b5190565b90815260200190565b82818337506000910152565b60005b838110156104095781810151838201526020016103f1565b83811115610418576000848401525b50505050565b601f01601f19169056fea365627a7a72315820572ecc75968f30cd8b7374335c4f54f7b3380b79d63793280624d32dafda37986c6578706572696d656e74616cf564736f6c63430005100040",
  "source": "// SPDX-License-Identifier: MIT\npragma solidity >=0.4.22 <0.9.0;\npragma experimental ABIEncoderV2;\n\ncontract VaxPass {\n    string[] items;\n\n    function addItem(string memory item) public {\n        items.push(item);\n    }\n\n    function getItems() public view returns (string[] memory) {\n        return items;\n    }\n}\n",
  "sourcePath": "/Users/DATA DRIVE/Degree/L5/SDGP/Project/truffle/contracts/VaxPass.sol",
  "compiler": {
    "name": "solc",
    "version": "0.5.16+commit.9c3226ce.Emscripten.clang"
  },
  "schemaVersion": "3.4.5",
  "updatedAt": "2022-03-29T21:39:35.196Z",
  "networkType": "ethereum",
  "devdoc": {
    "methods": {}
  },
  "userdoc": {
    "methods": {}
  }
}